:020000040800F2
:10000000B0050020B10100084315000831140008B4
:1000100041150008BD020008451900080000000055
:10002000000000000000000000000000471500086C
:10003000BF02000800000000451500086515000813
:10004000CB010008CB010008CB010008CB01000860
:10005000CB010008CB010008CB010008CB01000850
:10006000CB010008CB010008CB010008CB01000840
:10007000CB010008CB010008CB010008CB01000830
:10008000CB010008CB010008CB01000800000000F4
:10009000000000000000000000000000CB0100088C
:1000A000CB010008CB010008CB010008CB01000800
:1000B000CB010008CB010008CB010008CB010008F0
:1000C000CB010008CB010008CB010008CB010008E0
:1000D000CB010008CB01000839190008000000001E
:1000E000CB010008CB010008CB0100080000000094
:1000F000000000000000000000000000CB0100082C
:1001000000000000CB010008CB010008CB01000873
:1001100000000000000000000000000000000000DF
:10012000CB010008CB010008CB010008CB0100087F
:10013000CB010008000000000000000000000000EB
:10014000000000000000000000000000CB010008DB
:10015000CB010008CB010008CB010008CB0100084F
:10016000CB010008CB0100080000000000000000E7
:10017000000000000000000000000000000000007F
:1001800000000000CB01000800000000000000009B
:10019000CB010008CB010008DFF810D000F07CF89C
:1001A000004800470D1A0008AFF30080B00500209A
:1001B0000648804706480047FEE7FEE7FEE7FEE701
:1001C000FEE7FEE7FEE7FEE7FEE7FEE7F5150008BF
:1001D000990100082DE9F05F0546002092469B46F4
:1001E00088460646814640241BE02846414647464D
:1001F000224600F041F853465A46C01A914110D3A6
:1002000011461846224600F028F82D1A67EB01081F
:100210004F4622460120002100F01FF817EB00098D
:100220004E41201EA4F10104DFDC484631462A4637
:100230004346BDE8F09FD2B201E000F8012B491E11
:10024000FBD270470022F6E710B513460A46044673
:100250001946FFF7F0FF204610BD202A04DB203AA4
:1002600000FA02F1002070479140C2F1200320FA09
:1002700003F3194390407047202A04DB203A21FA07
:1002800002F00021704721FA02F3D040C2F12002AF
:100290009140084319467047064C074D06E0E06858
:1002A00040F0010394E8070098471034AC42F6D3BD
:1002B000FFF776FFB41B0008D41B0008FEE7704769
:1002C0002DE9F0410446876D00F048F9064694F8A0
:1002D00035000025022806D08020606584F834505F
:1002E0000120BDE8F0812068016821F0160101605D
:1002F0002068416921F080014161206C08B9A06C3F
:1003000020B12068016821F00801016020680168BF
:1003100021F0010101600BE000F020F9801B0528AD
:1003200006D92020606504F8345F03206070D8E7A8
:1003300020680068C007EFD194F85C103F20884027
:10034000B86004F8345F012060700020C9E790F8BD
:100350003510022903D08021416501207047052115
:1003600080F835100068016821F00101016000206B
:10037000704700002DE9F84FDFF8B4A100220124F6
:100380000AF1040B03254FF00F090BF1040E00BF17
:100390000B6804FA02F63340B34272D10F7907F0CA
:1003A0000307012F01D0022F16D187684FEA4208B8
:1003B00005FA08FC27EA0C07D1F80CC00CFA08FC77
:1003C0004CEA070CC0F808C04768B7430E79C6F37B
:1003D000001696403E4346600E79F643B6070DD0B0
:1003E000C768560005FA06FC27EA0C07D1F808C0D2
:1003F0000CFA06FC4CEA070CC0F80CC00E7906F0AB
:100400000306022E10D1D60800EB8608D8F820602B
:1004100057074FEAD76C09FA0CF7BE430F6907FA82
:100420000CF73743C8F8207006684FEA420C05FA0B
:100430000CF7BE430F7907F0030707FA0CF73743B1
:1004400007604E68F6006DD53A4E376847F480472E
:100450003760366822F0030706F480460096364E71
:1004600007EB060CDCF8086897073F0F09FA07F856
:1004700026EA0806DFF8C480404503D14FF00008A3
:100480001EE04FE0DFF8B880404502D14FF0010890
:1004900016E0DFF8B080404502D14FF002080FE0CF
:1004A000DFF8A480404502D14FF0030808E0DFF8F0
:1004B0009C80404502D14FF0040801E04FF007084E
:1004C00008FA07F848EA0608CCF80888DAF8006065
:1004D0005746D1F804C09E435FEACC3C00D51E438A
:1004E0003E60DBF800605F46D1F804C09E435FEADF
:1004F0008C3C00D51E433E60DEF800607746D1F8A4
:1005000004C09E435FEACC2C00D51E433E60084FDA
:100510000C373E68D1F804C09E435FEA8C2C00D5AE
:100520001E433E60521C102AFFF432AFBDE8F88F24
:10053000003C0140443802400030014000000240CD
:100540000004024000080240000C0240001002407B
:100550000AB1816170470904FBE700000148806827
:10056000704700007400002070B5040025D094F896
:100570003D00002520B984F83C50204600F0B8F832
:10058000242084F83D002068016821F00101016009
:100590002068016841F4004101602068016821F48D
:1005A0000041016000F00CFA4D4A6168914201D8A7
:1005B0004C4900E04C49884201D2012070BD4B49B2
:1005C0002368B0FBF1F15E6826F03F060E435E60E3
:1005D0006368934206D94FF4967359434FF47A7384
:1005E000B1FBF3F12368491C1E6A26F03F06314334
:1005F00019626168914210D84900401EB0FBF1F2C7
:10060000521CC2F30B02042A01D2042022E0B0FBE8
:10061000F1F0401CC0F30B001CE0A268F2B301EB48
:10062000C10303EB0116431EB3FBF6F35B1C43F45B
:1006300080431B0549D092B301EBC10202EB0111CB
:10064000401EB0FBF1F0401CC0F30B0040F48040B2
:1006500040F400402168CA694CF6FF739A43104386
:10066000C861D4E9071001432068026822F0C00283
:1006700011430160D4E9030101432068826848F214
:10068000FF339A4311438160D4E90501084321688F
:10069000CA6822F0FF021043C86001E00EE016E0D5
:1006A0002068016841F0010101602564202084F880
:1006B0003D00256384F83E50002070BD01EB4106EB
:1006C000431EB3FBF6F35B1CB3E70120C2E701EB6B
:1006D0004101401EB0FBF1F0401CC0F30B00B7E736
:1006E000A086010080841E0000093D0040420F00EA
:1006F00010B586B0044614216846FFF7A3FD1349E0
:100700002068884220D11248016841F0020101604E
:100710000068694600F002000590C0200090122099
:1007200001900120029003200390042004900948C6
:10073000FFF720FE06481030016841F40011016007
:10074000006800F40010059006B010BD0054004091
:1007500030380240000402400248816802781144A7
:1007600081607047740000200B4810B5016841F4A7
:1007700000710160016841F480610160016841F429
:1007800080710160032000F06FF8002000F006F88F
:1007900000F024F8002010BD003C024070B50D4D63
:1007A00004464FF47A712878B1FBF0F00A490968E1
:1007B000B1FBF0F000F00AFB48B9102C07D2002280
:1007C0002146501E00F030F800206C6070BD012002
:1007D00070BD000074000020800000200A4808B5A9
:1007E000016841F480410160006800F4804000909D
:1007F0000548001F016841F080510160006800F069
:100800008050009008BD000044380240002809DBF9
:1008100000F01F02012191404009800000F1E0201A
:10082000C0F8001170470000F0B40E4B1B680C4676
:10083000C3F30223C3F10705042D00D90425191DB4
:10084000072901D2002300E0DB1E012606FA05F18C
:10085000491E214099409E40761E16403143F0BC0F
:1008600001F071B80CED00E0064900F007020868DD
:100870004FF6FF03184040EA0220034A1043086085
:10088000704700000CED00E00000FA052DE9F0478C
:100890000E46050065D0DFF81481D8F80000F7B2E5
:1008A00000F00700B04207D288F80070D8F80000C6
:1008B00000F00700B04254D128683D4C810712D5A2
:1008C000400703D5206840F4E050206028780007F6
:1008D00003D5206840F4604020602068A96820F0BB
:1008E000F000084320602878C0072DD030496868A0
:1008F0000839012812D0022813D0032811D0096822
:10090000890700292DDA216821F0030101432160C4
:10091000FFF724FE814641F2883A0EE00968890318
:10092000EFE709688901ECE7FFF718FEA0EB090182
:10093000514502D90320BDE8F0872068696800F0BE
:100940000C00B0EB810FEFD1D8F80010404601F059
:100950000701B14207D90770006800F00700B042F4
:1009600001D00120E7E72878400705D52068E9682D
:1009700020F4E050084320602878000706D520685E
:10098000296920F4604040EAC100206000F038F896
:100990002168084AC1F30311515CC8400649086048
:1009A00006480068FFF7FAFE0020C4E7003C02405A
:1009B000083802409A1B00088000002078000020C0
:1009C0000448054900680968044AC1F38221515C62
:1009D000C84070478000002008380240AA1B000869
:1009E0000448054900680968044AC1F34231515C72
:1009F000C84070478000002008380240AA1B000849
:100A0000154810B5006810F00C02144813D04110BE
:100A1000042A0FD0082A0ED10F4C241F2268236805
:100A200002F03F025B0207D52068C0F38810A0FBEC
:100A3000010106E0084610BD2168C1F38811A1FB41
:100A400000010023FFF7C6FB2168C1F30141491CE7
:100A50004900B0FBF1F010BD083802400024F4005A
:100A60002DE9F84F04006ED02078DFF84C93C007D2
:100A7000A9F104054AD009F104000168C1F381011C
:100A8000012908D00068C0F3810002280AD1D9F8F2
:100A90000000400206D52868800337D5606800282A
:100AA000E1D033E06068B0F5803F10D0B0F5A02F02
:100AB000286810D020F480302860286820F4802036
:100AC00028606068A8B1FFF749FD06460DE0286878
:100AD00040F48030F4E740F480202860F7E700BF5E
:100AE000FFF73CFD801B642873D828688003F7D586
:100AF0000CE0FFF733FD064605E000BFFFF72EFDD3
:100B0000801B6428F0D828688003F7D42078DFF8A9
:100B1000AC8280074FF0000A3ED5A748001D01684F
:100B200011F00C0F08D00068C0F3810002280BD12F
:100B3000D9F80000400207D42868800716D5E0687D
:100B4000012800D112E033E1E068B8B10120C8F813
:100B50000000FFF703FD064605E000BFFFF7FEFCBF
:100B6000801B0228C0D828688007F7D5286821692B
:100B700020F0F80040EAC10028600DE0C8F800A0AD
:100B8000FFF7ECFC064604E0FFF7E8FC801B0228B8
:100B90001FD828688007F7D42078000722D5864F11
:100BA00087486169703771B101210160FFF7D6FC98
:100BB000064604E0FFF7D2FC801B022809D83868FB
:100BC0008007F7D50EE0C0F800A0FFF7C7FC064687
:100BD00005E082E0FFF7C2FC801B02287DD8386860
:100BE0008007F7D42078400768D5DFF8CCB100271C
:100BF0000BF13C0BDBF80000C0000BD4DBF800105D
:100C000041F08051CBF80010DBF80000012700F024
:100C1000805000906B4E3068C00510D4306840F4AE
:100C200080703060FFF79AFC009005E0FFF796FCBB
:100C30000099401A022850D83068C005F6D55E4E9B
:100C4000A0686C3601280FD00528306810D020F03D
:100C500001003060306820F004003060A068B8B156
:100C6000FFF77CFC00900FE0306840F00100F4E7F3
:100C700040F004003060F7E7FFF770FC0099411A7C
:100C800041F28830814266D830688007F4D50EE0A2
:100C9000FFF764FC009007E0FFF760FC0099411A41
:100CA00041F28830814256D830688007F4D42FB1A1
:100CB000DBF8001021F08051CBF80010A069C8B318
:100CC0003D49091D0968C1F3810102294AD0022862
:100CD000504607D0C8F8600000E03CE0FFF73EFC5B
:100CE00004463BE04746C8F86000FFF737FC06467D
:100CF00005E000BFFFF732FC801B02282BD82868D4
:100D00008001F7D4D4E907010843A16A2E4A4908B3
:100D100002EB0141626A41EA8211084394F82C1007
:100D200040EA0161C9F8001001203866FFF716FC9F
:100D3000044606E03EE000BFFFF710FC001B02285F
:100D400009D828688001F7D534E000BFFFF706FC1A
:100D5000001B022802D90320BDE8F88F2868800113
:100D6000F4D427E00128F7D0D9F80000E26900F4B4
:100D7000800191421CD1226A00F03F01914217D1BB
:100D800047F6C071626A0140B1EB821F10D1A26ABE
:100D90004FF0FF3300F4403103EB5202B1EB024F4E
:100DA00006D194F82C1000F07060B0EB016F01D008
:100DB0000120D1E70020CFE704380240000047427D
:100DC000800E4742007000400000FFFF10B5401E3B
:100DD000B0F1807F01D3012010BD4FF0E0246061AD
:100DE0000F21601700F0AFFD0020A06107202061F7
:100DF000002010BD70B590F83C20012A2CD00124B1
:100E000080F83C40022280F83D2003685A689D68C3
:100E100022F070060A6832435A60104B02689A4208
:100E20000ED0B2F1804F0BD00D4B9A4208D00D4B33
:100E30009A4205D00C4B9A4202D00C4B9A4204D1F4
:100E4000496825F080031943916080F83D400021F6
:100E500080F83C10084670BD022070BD00000140C3
:100E60000004004000080040000C00400040014029
:100E700010B5040003D094F83D0010B107E0012044
:100E800010BD002084F83C00204600F01FF802202E
:100E900084F83D00211D206800F0B4FB012084F897
:100EA000460084F83E0084F83F0084F8400084F84F
:100EB000410084F8420084F8430084F8440084F838
:100EC000450084F83D00002010BD000008B5006812
:100ED000B0F1804F08D10548016841F0010101607F
:100EE000006800F00100009008BD0000403802409A
:100EF00090F83D10012901D001207047022180F8AF
:100F00003D1000680E4988420ED0B0F1804F0BD0E2
:100F10000C49884208D00C49884205D00B498842C8
:100F200002D00B49884204D1816801F007010629EB
:100F300003D0016841F0010101600020704700000A
:100F4000000001400004004000080040000C004088
:100F50000040014070B5044690F83C00012817D0CD
:100F6000012584F83C50022084F83D002068826806
:100F700022F0770222F47F4282600868502830D045
:100F80000DDC20284DD005DC98B310283BD148E07B
:100F9000022070BD302844D0402834D139E0602888
:100FA00028D0702806D0B0F5805F2CD0B0F5005F57
:100FB00029D10AE0CB68D1E90121206800F06EFB5D
:100FC0002068816841F0770109E0CB68D1E901210F
:100FD000206800F063FB2068816841F480418160F3
:100FE00011E0CA684968206800F06AFB5021206857
:100FF00007E016E0CA684968206800F072FB6021CB
:10100000206800F055FB84F83D50002084F83C0037
:1010100070BDCA684968206800F052FB4021206812
:10102000EFE7226801461046EBE770477047000083
:10103000F8B5026804461068D168536910F00F0FC4
:101040004FF0000553D003F0010601F490773743C9
:101050005FD0C20705D0CA0503D5226C42F0010259
:101060002264420705D5DA0703D0226C42F002025F
:101070002264820705D5DA0703D0226C42F004020D
:101080002264020707D501F02002324303D0226C0C
:1010900042F008022264226C002A34D0800604D573
:1010A000880602D5204600F04EFB20684069216C7E
:1010B000C0F38010090700D430B3204600F02BFBAA
:1010C0002068416949061BD5416921F04001416111
:1010D000A06BA8B159490165A06BFFF738F900284A
:1010E00011D0A06B016D01B0BDE8F0400847830648
:1010F0000FD58B060DD52046BDE8F84000F023BB88
:101100002046FFF793FFF8BD2046FFF78FFF2564C9
:10111000F8BD266B2023012E53D1C60651D5CE062D
:101120004FD5106850680090506940062BD5A16BD0
:10113000086840680004000CEAD0A68D8642E7D912
:10114000E085C869B0F5807F18D0D06820F4807041
:10115000D0602068416921F0010141612068416946
:1011600021F04001416184F83E3025632068C16868
:1011700021F01001C160A06BFFF7A2F8A08DE18DF6
:10118000401A81B219E0A08DE18D401A81B2E08D44
:101190000028BDD00029BBD0D06820F49070D0606A
:1011A0002068426922F00102426184F83E302563E2
:1011B0002068C26822F01002C2602046FFF735FFA7
:1011C000F8BD05062BD50D0629D594F83D0021283C
:1011D000F6D1A068B0F5805F01D12069B0B1206A76
:1011E000411C2162216800784860E08C401E0004A8
:1011F000000CE084E4D12068C16821F08001C16066
:101200002068C16841F04001C160F8BD206A0088D3
:10121000C0F308005060206A801C2062E5E74006A9
:10122000F3D54806F1D5D168204621F04001D160C0
:1012300084F83D3000F0FBF8F8BD00000717000807
:1012400070B5040004D094F83D00002510B106E00C
:10125000012070BD84F83C50204600F023F8242083
:1012600084F83D002068C16821F40051C160204627
:1012700000F0C0FA2068016921F490410161206802
:10128000416921F02A0141612068C16841F400519F
:10129000C1602564202084F83D0084F83E000020D1
:1012A00070BD000010B586B0044614216846FEF7F4
:1012B000C9FF17492068884228D1164800210268D2
:1012C00042F400320260006800F4003005901148DA
:1012D0001038026842F001020260006800F001006C
:1012E00005900C2000900220CDE90101032003901D
:1012F0000720049069460848FFF73CF80022114691
:101300002620FFF791FA2620FFF780FA06B010BDDD
:1013100000440040403802400000024090F83E3057
:10132000202B0ED159B152B190F83C30012B08D08E
:10133000012380F83C300023036300F0E1BA012070
:10134000704702207047000010B5274900680968FF
:10135000884248D124488030017853293BD14078D5
:10136000224C432802D0542835D119E01E48803041
:1013700000F008FB1C486188443000F0F1FB1A487B
:10138000A188583000F0ECFB1748E1886C3000F081
:10139000E7FB164936220831134800F029F81AE015
:1013A0001148803000F0EEFA0F486188443000F0B8
:1013B000EEFB0D48A188583000F0E9FB0A48E188AF
:1013C0006C3000F0E4FB094935223E31064800F05C
:1013D0000FF80120207004490B22BDE81040803135
:1013E0000148FFF79BBF10BD200100200000002036
:1013F00090F83D30202B18D1A9B1A2B190F83C3023
:10140000012B12D001628284C28400210164212256
:1014100080F83D2080F83C100068C16841F08001F0
:10142000C16000207047012070470220704770475C
:10143000FEE700002DE9F04186B014216846FEF772
:1014400001FF23480024016841F080010160016828
:1014500001F080010591016841F00101016001681E
:1014600001F001010591016841F00401016001688A
:1014700001F004010591016841F00201016000687A
:10148000144F00F002004FF47075059000222946B9
:101490003846FFF75DF8DFF840804FF440760022D1
:1014A00031464046FFF754F800950125CDE9015437
:1014B000694638460394FEF75DFF0096CDE9015476
:1014C000694640460394FEF755FF06B0BDE8F0813B
:1014D00030380240000802400000024010B586B0DB
:1014E00000241648009401940294039404944FF04D
:1014F0008041059401603121C0E901144FF6FE716D
:10150000C0E903148461FFF7B3FC08B172B6FEE7CB
:101510004FF48050009069460848FFF71BFD08B162
:1015200072B6FEE7049404A904480594FFF762FC30
:10153000002801D072B6FEE706B010BDD80000202A
:10154000FEE7FEE77047704730B5DDE9034501600F
:101550008280C38005EB850104724901C16001618D
:10156000002030BDFFF7F8B830B593B030216846A1
:10157000FEF768FE14210CA8FEF764FE1B48002449
:10158000016841F080510160006800F080501190C6
:101590001748016841F4404101600068022500F4E9
:1015A0004040119001200090000401908001CDE99D
:1015B000065008AA0420322182E823000B906846D6
:1015C000FFF74EFA08B172B6FEE70F200C90CDE996
:1015D0000D540F9401210CA81094FFF757F900281F
:1015E00001D072B6FEE713B030BD000040380240B3
:1015F000007000400248016841F4700101607047CA
:1016000088ED00E0F0B502681D4B1E4C9F031E4D97
:101610001E4E984207D0B84205D0A04203D0A8423F
:1016200001D0B04204D122F0700C4A6842EA0C02A8
:10163000984210D0B8420ED0A0420CD0A8420AD096
:10164000B04208D0124CA04205D0124CA04202D0A9
:10165000114CA04203D122F44074CA6822434C6961
:1016600022F08002224302608A68C2620A688262B3
:10167000984201D10969016301214161F0BD000077
:10168000000001400004004000080040000C004041
:1016900000400140004401400048014010B584680A
:1016A00042EA032224F47F440A432243826010BDAD
:1016B000826822F070020A4342F00701816070479D
:1016C00010B5036A046A24F001040462846924F0FA
:1016D000F00444EA021423F00A020A43846102621D
:1016E00010BD10B5036A23F0100303628369046A16
:1016F00023F4704343EA023224F0A00343EA0111C9
:101700008261016210BD10B5806B0021C185C1846A
:10171000FFF78CFC10BD0168CA6822F49072CA60A1
:1017200001684A6922F001024A61016B012904D172
:101730000168CA6822F01002CA60202180F83E10B9
:1017400000210163704710B5044690F83E0022283E
:1017500001D0022010BDA1684FF48052914201D106
:10176000206920B1A06A91421BD049B10AE02168EA
:10177000A06A4968C1F308010180A06A801C08E0E2
:10178000216971B12168496801F07F010170A06A87
:10179000401CA062E08D401E0004000CE08503D0D8
:1017A0001CE021684968F1E72068C16821F0200148
:1017B000C1602068C16821F48071C16020684169FE
:1017C00021F001014161202084F83E00206B0128B6
:1017D00006D02046FFF7B8FD00202063002010BD92
:1017E0002068C16821F01001C160A18D2046FFF77B
:1017F0001CFCF1E770B5044600680169E26821F459
:101800004051114301612169A068E269084361699F
:10181000114308432168CA6849F20C639A430243A2
:10182000CA6020684169A26921F440711143416195
:1018300031492068884202D03049884202D1FFF7FE
:10184000CFF801E0FFF7BCF8E26900231921642515
:101850003226B2F5004F626828D0A0FB0101930F39
:101860009200FEF7B7FC0146B0FBF5F06FF01802EE
:10187000504301EB800006EB0010B0FBF5F000F0E8
:10188000F002B1FBF5F002EB0012B1FBF5F06FF0E6
:101890001803584301EB800006EB0010B0FBF5F095
:1018A00000F00F0021681044886070BDA0FB0101AA
:1018B00092185B41FEF78EFC0146B0FBF5F0020189
:1018C000B1FBF5F06FF01803584301EB800006EB15
:1018D000C000B0FBF5F000F0F80002EB4002B1FBF5
:1018E000F5F0584301EB800006EBC000B0FBF5F0CB
:1018F00000F00700D6E7000000100140001401408E
:1019000081628285C28500210164222280F83E2006
:1019100080F83C100168CA6842F48072CA600168AD
:101920004A6942F001024A610068C16841F0200141
:10193000C1600020704700000148FFF779BB00003C
:1019400020010020FEE70907090E002804DB00F152
:10195000E02080F80014704700F00F0000F1E02054
:1019600080F8141D704702E008C8121F08C1002A41
:10197000FAD170477047002001E001C1121F002A10
:10198000FBD1704730B581780279303901EBC10362
:1019900003EB011102EB8102C17801EB81031349D2
:1019A00001EB43031344124A53804379C479303B1B
:1019B00003EBC30505EB031304EB8303847904EB0A
:1019C000840401EB440423449380037A847A303BFB
:1019D000407A03EBC30505EB031300EB800004EB37
:1019E000830301EB40001844D08030BDF0FDFFFFC1
:1019F00000000020044900220B685A6209684A6A04
:101A000092B28242FBD37047D80000201CB5FEF78B
:101A1000ABFEFFF7A9FDFFF70DFD30482E4900246E
:101A200001602F49C0E901144FF48041C0E903412E
:101A300044618461C4610462FEF796FD08B172B628
:101A4000FEE7264827499C3001604FF4E131C0E9A8
:101A500001140C21C460C0E904418461C461FFF732
:101A6000EFFB08B172B6FEE7FFF738FD1B485430B4
:101A7000FFF73EFA20251C4E1848CDE900544023BC
:101A800080223146E030FFF75FFD1448CDE9005475
:101A9000EF004FF400783B4642463146F430FFF702
:101AA00053FDCDE900543B46424610491048FFF72C
:101AB0004BFD0F490B221431A1F18000FFF72EFCE2
:101AC0000B48283800F016F80948143800F012F8CE
:101AD000074800F00FF8F3E70054004084000020AE
:101AE000A0860100004400400008024000000240BF
:101AF0008C01002070B504464FF49675D4E90301BB
:101B000081422BD0204614D900F031F8E18801221F
:101B10002068FEF71DFD3220FFF76CFFE1880022F0
:101B20002068FEF715FD2846FFF764FFE068401CBB
:101B300013E000F024F8E18801222068FEF708FD98
:101B40003220FFF757FFE18800222068FEF700FDF2
:101B50002846FFF74FFFE068401EE060002070BDA0
:101B600001EB81014901C16001610020704710B59E
:101B7000818800680122FEF7EBFC002010BD10B543
:101B8000818800680022FEF7E3FC002010BD01EB15
:101B90008101490101610020704700000000000040
:101BA000000001020304060708090000000001020A
:101BB00003040000D41B0008000000208400000083
:101BC00066190008581C0008840000202C0500003D
:101BD0007619000800000000000000000A53657438
:101BE0002043757272656E7420506F736974696FEB
:101BF0006E20666F7220332053746570706572209A
:101C00004D6F746F7220636F6D706C6574656421C5
:101C10000A000A5365742054617267657420506F1E
:101C2000736974696F6E20666F7220332053746518
:101C300070706572204D6F746F7220636F6D706C81
:101C400065746564210A00000100000010000000B6
:081C5000000000000024F40074
:040000050800019955
:00000001FF
