:020000040800F2
:1000000028060020B101000833230008D71D00088E
:1000100031230008C5080008F1270008000000008F
:10002000000000000000000000000000372300086E
:10003000C708000800000000352300085523000809
:10004000CB010008CB010008CB010008CB01000860
:10005000CB010008CB010008CB010008CB01000850
:10006000CB010008CB010008CB010008CB01000840
:10007000CB010008CB010008CB010008CB01000830
:10008000CB010008CB010008CB01000800000000F4
:10009000000000000000000000000000CB0100088C
:1000A000CB010008CB010008CB010008CB01000800
:1000B000CB010008CB010008CB010008CB010008F0
:1000C000CB010008CB010008CB010008CB010008E0
:1000D000CB010008CB010008E52700080000000064
:1000E000CB010008CB010008CB0100080000000094
:1000F000000000000000000000000000CB0100082C
:1001000000000000CB010008CB010008CB01000873
:1001100000000000000000000000000000000000DF
:10012000CB010008CB010008CB010008CB0100087F
:10013000CB010008000000000000000000000000EB
:10014000000000000000000000000000CB010008DB
:10015000CB010008CB010008CB010008CB0100084F
:10016000CB010008CB0100080000000000000000E7
:10017000000000000000000000000000000000007F
:1001800000000000CB01000800000000000000009B
:10019000CB010008CB010008DFF810D000F05EFAB8
:1001A0000048004709320008AFF30080280600200D
:1001B0000648804706480047FEE7FEE7FEE7FEE701
:1001C000FEE7FEE7FEE7FEE7FEE7FEE7E5230008C1
:1001D000990100082DE9F05F0546002092469B46F4
:1001E00088460646814640241BE02846414647464D
:1001F000224600F06AF853465A46C01A914110D37D
:1002000011461846224600F051F82D1A67EB0108F6
:100210004F4622460120002100F048F817EB000964
:100220004E41201EA4F10104DFDC484631462A4637
:100230004346BDE8F09FD2B201E000F8012B491E11
:10024000FBD270470022F6E710B513460A46044673
:100250001946FFF7F0FF204610BD00F0004230F0D5
:1002600000400AD0C10D01F56071C0F3160042EAEA
:100270000151C208400711437047002001467047F2
:1002800030B50B46014600202022012409E021FA66
:1002900002F59D4205D303FA02F5491B04FA02F563
:1002A0002844151EA2F10102F1DC30BD202A04DB36
:1002B000203A00FA02F1002070479140C2F1200379
:1002C00020FA03F3194390407047202A04DB203AB8
:1002D00021FA02F00021704721FA02F3D040C2F166
:1002E000200291400843194670472DE9FE4F804691
:1002F00081EA0300C00F0C46009021F0004123F07A
:100300000045B8EB0200A94105D24046214690467F
:100310001C460B46024623F00040104347D0270DF1
:10032000C7F30A00C3F30A510290401A0190402813
:100330006BDAC3F3130040F4801B0098924620B19F
:100340000023D2EB030A63EB0B0B01985946C0F173
:1003500040025046FFF7AAFF06460D465046594652
:10036000019A00F08DF910EB08006141002487EA42
:10037000115284EAE7731A4340D0009A62B3019A9B
:10038000012A4FEA075215DC001B61EB02014FF016
:10039000004202EA0752CDE90042001C41F58011FB
:1003A00032462B4600F08DF903B0BDE8F08F404691
:1003B0002146F9E7001B61EB0201001C41F58013A7
:1003C00000185B412018A2F5001747EB030140EA33
:1003D000D570B6196D4111E06D084FEA360645EA51
:1003E000C0754FEA0752001B61EB0201001C41F58A
:1003F000801149084FEA30000019514132462B461E
:1004000003B0BDE8F04F00F04DB900980122400064
:100410000023D0EB020263EBE073009821464FEA21
:10042000E074B8EB000061EB0401E9E783F00043FE
:100430005BE781F0004158E72DE9FE4F81EA0304B4
:1004400004F0004421F0004100944FF0000B23F031
:10045000004350EA01045ED052EA03045BD0C3F3C8
:100460000A54C1F30A552C44A4F2F3340194A0FBBE
:100470000254C1F3130141F48011C3F3130343F495
:10048000801301FB024400FB034E840A970A44EAEE
:10049000815447EA8357A4FB076802958D0A05FB40
:1004A00007854FEA932C04FB0C542705029D4FEA65
:1004B000065847EA1637B5EB08056EEB070C870EB2
:1004C000920E47EA811742EA8312A7FB0201B6EBBC
:1004D0000B0164EB00042B0D43EA0C335E1844EB74
:1004E0001C50DA465146E7FB0201C5F313044FEAFC
:1004F0000B3343EA14534FEA0432019C43EA0603E8
:10050000A4F10C040294009CCDE900B400F0D9F8E9
:1005100003B0BDE8F08F00200146F9E72DE9F04D6A
:1005200081EA030404F0004B21F0004514464FF02B
:10053000000A23F0004150EA050220D054EA0102EB
:100540001DD0C5F30A570246C5F31303C1F31300C8
:10055000C1F30A5640F4801543F48013A7EB060854
:10056000101BD64608F2FD3873EB050002D308F1E4
:10057000010801E092185B41B8F1000F03DA002096
:100580000146BDE8F08D00204FF4801106468446F8
:100590000EE0171B73EB050705D3121B63EB050376
:1005A00006434CEA010C49084FEA300092185B41BF
:1005B00050EA0107EDD152EA030012D082EA0400AA
:1005C00083EA0501084305D0101BAB4106D2012286
:1005D000002306E000224FF0004302E06FF001022A
:1005E00053101AEB06004CEB085110EB0A0041EBDC
:1005F0000B01BDE8F04D00F055B8C1F30A52C1F34C
:10060000130140F2FF3341F480119A4202DA0020D4
:100610000146704740F233439A42A2F2334202DC71
:100620005242FFF752BEFFF741BE000030B5041E34
:1006300071F1000404DB4FF00044404264EB01011F
:10064000141E73F1000405DB1C464FF000435242B8
:1006500063EB0403994208BF904230BD064C074D3E
:1006600006E0E06840F0010394E807009847103482
:10067000AC42F6D3FFF794FDA4340008C43400085C
:10068000202A06DBCB17203A41FA02F043EAE07356
:1006900006E041FA02F3D040C2F120029140084343
:1006A0001946704710B5141E73F1000408DA401C97
:1006B00041F1000192185B411A4301D120F0010081
:1006C00010BD2DE9F04D92469B4611B1B1FA81F271
:1006D00002E0B0FA80F220329046FFF7E7FD0446D0
:1006E0000F4640EA0A0041EA0B0153465A460843C6
:1006F00013D0114653EA010019D0C8F14002504608
:10070000FFF7E3FD05460E46504659464246FFF7C1
:10071000CDFD084305D0012004E020463946BDE860
:10072000F08D0020054346EAE0762C4337430A98D3
:100730006305E40AA0EB08000022FD0A44EA4754DE
:100740000A3002D500200146E9E701051019694188
:10075000DDE9084500196941BDE8F04DA2E710B593
:1007600001600446828000F057F828B945212046F0
:1007700000F07EF8002800D0012010BD03B581B044
:100780009DF8081001B101218DF808100A2100918F
:1007900081880068012302AA00F09EFB002800D097
:1007A00001200EBD1CB50C460A210091818800680D
:1007B000022301AA00F0A0FA08B101201CBDBDF877
:1007C0000400124A40BA00EE100A5078B8EE400A0F
:1007D000452809D000EE900ADFED0D1AB8EE601A38
:1007E000C1EE810A20EE800A1078212801D011285C
:1007F00003D1F6EE000A20EE200ADFED060A002003
:1008000080EE201A84ED001A1CBD000000000020BC
:1008100000008A429A99993F1CB507218DF804106F
:100820000A21009181880068012301AA00F054FB8D
:10083000002800D001201CBD03B581B09DF8081030
:100840000A0952EA51120FD001F00F02032A0BD805
:10085000064A012311700A2100918188006802AACA
:1008600000F03AFB002800D001200EBD000000205F
:100870007CB50446A1F11F00E0281FD210480A25CC
:1008800001234170402040EA51108DF8040001F02E
:100890001F0040F060008DF805000095A18801AAB6
:1008A000206800F019FB48B90095A18801230DF1DB
:1008B0000502206800F010FB002800D001207CBD5C
:1008C00000000020FEE770472DE9F0410446876DE7
:1008D00000F048F9064694F835000025022806D0B5
:1008E0008020606584F834500120BDE8F0812068E4
:1008F000016821F0160101602068416921F0800142
:100900004161206C08B9A06C20B12068016821F019
:10091000080101602068016821F0010101600BE01D
:1009200000F020F9801B052806D92020606504F816
:10093000345F03206070D8E720680068C007EFD1FB
:1009400094F85C103F208840B86004F8345F0120C0
:1009500060700020C9E790F83510022903D080218B
:10096000416501207047052180F835100068016855
:1009700021F0010101600020704700002DE9F84FCF
:10098000DFF8B4A1002201240AF1040B03254FF083
:100990000F090BF1040E00BF0B6804FA02F6334096
:1009A000B34272D10F7907F00307012F01D0022F54
:1009B00016D187684FEA420805FA08FC27EA0C07B7
:1009C000D1F80CC00CFA08FC4CEA070CC0F808C0BF
:1009D0004768B7430E79C6F3001696403E4346601B
:1009E0000E79F643B6070DD0C768560005FA06FC27
:1009F00027EA0C07D1F808C00CFA06FC4CEA070CF1
:100A0000C0F80CC00E7906F00306022E10D1D608ED
:100A100000EB8608D8F8206057074FEAD76C09FA30
:100A20000CF7BE430F6907FA0CF73743C8F820707C
:100A300006684FEA420C05FA0CF7BE430F7907F03F
:100A4000030707FA0CF7374307604E68F6006DD5C9
:100A50003A4E376847F480473760366822F003071C
:100A600006F480460096364E07EB060CDCF8086864
:100A700097073F0F09FA07F826EA0806DFF8C4804F
:100A8000404503D14FF000081EE04FE0DFF8B8808A
:100A9000404502D14FF0010816E0DFF8B080404534
:100AA00002D14FF002080FE0DFF8A480404502D1E8
:100AB0004FF0030808E0DFF89C80404502D14FF07A
:100AC000040801E04FF0070808FA07F848EA0608AA
:100AD000CCF80888DAF800605746D1F804C09E4385
:100AE0005FEACC3C00D51E433E60DBF800605F4609
:100AF000D1F804C09E435FEA8C3C00D51E433E60A3
:100B0000DEF800607746D1F804C09E435FEACC2C43
:100B100000D51E433E60084F0C373E68D1F804C034
:100B20009E435FEA8C2C00D51E433E60521C102A67
:100B3000FFF432AFBDE8F88F003C0140443802407A
:100B40000030014000000240000402400008024062
:100B5000000C0240001002400AB181617047090494
:100B6000FBE7000001488068704700005C0000203F
:100B700070B5040025D094F83D00002520B984F814
:100B80003C50204600F03EFA242084F83D002068C6
:100B9000016821F0010101602068016841F4004111
:100BA00001602068016821F40041016000F0BCFB95
:100BB0004D4A6168914201D84C4900E04C49884255
:100BC00001D2012070BD4B492368B0FBF1F15E6892
:100BD00026F03F060E435E606368934206D94FF4E9
:100BE000967359434FF47A73B1FBF3F12368491CB0
:100BF0001E6A26F03F06314319626168914210D89F
:100C00004900401EB0FBF1F2521CC2F30B02042A51
:100C100001D2042022E0B0FBF1F0401CC0F30B0035
:100C20001CE0A268F2B301EBC10303EB0116431E03
:100C3000B3FBF6F35B1C43F480431B0549D092B32E
:100C400001EBC10202EB0111401EB0FBF1F0401CB0
:100C5000C0F30B0040F4804040F400402168CA69B2
:100C60004CF6FF739A431043C861D4E9071001435F
:100C70002068026822F0C00211430160D4E9030138
:100C800001432068826848F2FF339A431143816030
:100C9000D4E9050108432168CA6822F0FF02104325
:100CA000C86001E00EE016E02068016841F0010133
:100CB00001602564202084F83D00256384F83E50BF
:100CC000002070BD01EB4106431EB3FBF6F35B1C35
:100CD000B3E70120C2E701EB4101401EB0FBF1F098
:100CE000401CC0F30B00B7E7A086010080841E0003
:100CF00000093D0040420F002DE9F84F1F46904685
:100D00008A460446DDF82890FFF72CFF054694F844
:100D10003D00202875D1192301226C4920460095F9
:100D200001F05CF90028F5D194F83C00012868D066
:100D3000012084F83C0020680168C90703D10168DC
:100D400041F0010101602068016821F40061016047
:100D5000222084F83D00102084F83E0000262664FE
:100D6000C4F824806785608D20855948E0622B4651
:100D70004A465146204601F047F8002878D1208D98
:100D8000544F68B1012814D002282068016816D099
:100D900041F480610160206841698069009087E0CA
:100DA0002068416981690091016841F40071016026
:100DB0007EE02068016821F480610160F0E721F4A1
:100DC000806101602068016841F40061E2E7032866
:100DD00048D801280AD0022814D04B4600223946B0
:100DE0002046009501F0FAF8D8BB27E02A4649468C
:100DF000204601F072F9A0BB20680069616A0870A2
:100E00004DE061E04B46002239462046009501F056
:100E1000E5F830BB2068016841F40071016020688A
:100E20000069616A0870606A401C6062218D491E19
:100E30002185618D491E618521682EE02068016849
:100E400021F48061016020680069616A0870606A4D
:100E5000401C6062208D401E2085608D401E608594
:100E6000D0E705E02A464946204601F036F910B1A0
:100E70000120BDE8F88F20680069616A0870606A27
:100E8000401C6062218D491E2185618D491E61854E
:100E900021684A69D24352070AD409690170606A1D
:100EA000401C6062208D401E2085608D401E608544
:100EB000208D00288BD1202084F83D0084F83E60EE
:100EC00084F83C600020D4E70220D2E70200100042
:100ED0000000FFFF040001002DE9F84F1F46904677
:100EE0008A460446DDF82890FFF73CFE054694F854
:100EF0003D0020287FD1192301224049204600953A
:100F000001F06CF8002876D194F83C00012872D0EA
:100F1000012084F83C0020680168C90703D10168FA
:100F200041F0010101602068016821F40061016065
:100F3000212084F83D00102084F83E00002626641D
:100F4000C4F824806785608D20852D48E0622B469B
:100F50004A465146204600F0CDFF90B920684169CD
:100F60008069009036E02A464946204601F0E8F8BC
:100F700050B1206C042804D12068016841F400714C
:100F800001600120BDE8F88F606A2168007808617F
:100F9000606A401C6062618D491E6185218D491E19
:100FA00089B2218522685369DB435B070BD451B1B9
:100FB00000781061606A401C6062608D401E608530
:100FC000208D401E20852A464946204600F0E0FF3D
:100FD0000028CED1208D0028C5D154F83D0B0168E2
:100FE00041F400710160202004F81E09E67766775D
:100FF0000020C7E7FFE70220C4E70000020010005E
:101000000000FFFF2DE9F04186B004461421684638
:10101000FFF718F92368274CDFF894C025491225FB
:1010200001260327042224481034634516D10B6897
:1010300043F002030B600968049201F0020105917C
:10104000C0218DE8E2006946FFF798FC206840F473
:1010500000102060206800F4001024E0DFF85CC07D
:10106000634521D10B6843F002030B6009680492C9
:1010700001F0020105914FF480618DE8E2006946BC
:101080008046FFF77BFC08208DE8E10009200490F2
:1010900069464046FFF772FC206840F480002060FB
:1010A000206800F48000059006B0BDE8F0810000E3
:1010B0000054004030380240000402400058004014
:1010C0000248816802781144816070475C0000200A
:1010D0000B4810B5016841F400710160016841F4EA
:1010E00080610160016841F480710160032000F0BB
:1010F0006FF8002000F006F800F024F8002010BD82
:10110000003C024070B50D4D04464FF47A712878CA
:10111000B1FBF0F00A490968B1FBF0F000F00AFBFE
:1011200048B9102C07D200222146501E00F030F89A
:1011300000206C6070BD012070BD00005C000020CC
:10114000680000200A4808B5016841F48041016048
:10115000006800F4804000900548001F016841F0DD
:1011600080510160006800F08050009008BD0000D0
:1011700044380240002809DB00F01F0201219140A1
:101180004009800000F1E020C0F800117047000025
:10119000F0B40E4B1B680C46C3F30223C3F10705E2
:1011A000042D00D90425191D072901D2002300E0D0
:1011B000DB1E012606FA05F1491E214099409E409A
:1011C000761E16403143F0BC01F02EBB0CED00E062
:1011D000064900F0070208684FF6FF03184040EA8E
:1011E0000220034A10430860704700000CED00E045
:1011F0000000FA052DE9F0470E46050065D0DFF83E
:101200001481D8F80000F7B200F00700B04207D20E
:1012100088F80070D8F8000000F00700B04254D100
:1012200028683D4C810712D5400703D5206840F45B
:10123000E05020602878000703D5206840F4604023
:1012400020602068A96820F0F0000843206028781A
:10125000C0072DD0304968680839012812D002280B
:1012600013D0032811D00968890700292DDA2168D5
:1012700021F0030101432160FFF774FC814641F234
:10128000883A0EE009688903EFE709688901ECE70D
:10129000FFF768FCA0EB0901514502D90320BDE826
:1012A000F0872068696800F00C00B0EB810FEFD187
:1012B000D8F80010404601F00701B14207D9077085
:1012C000006800F00700B04201D00120E7E728786D
:1012D000400705D52068E96820F4E0500843206005
:1012E0002878000706D52068296920F4604040EA84
:1012F000C100206000F038F82168084AC1F30311EA
:10130000515CC8400649086006480068FFF7FAFECD
:101310000020C4E7003C0240083802408A3400083C
:101320006800002060000020044805490068096842
:10133000044AC1F38221515CC84070476800002014
:10134000083802409A3400080448054900680968D2
:10135000044AC1F34231515CC84070476800002024
:10136000083802409A340008154810B5006810F09B
:101370000C02144813D04110042A0FD0082A0ED1B1
:101380000F4C241F2268236802F03F025B0207D53E
:101390002068C0F38810A0FB010106E0084610BDDC
:1013A0002168C1F38811A1FB00010023FEF712FFA1
:1013B0002168C1F30141491C4900B0FBF1F010BDA7
:1013C000083802400024F4002DE9F84F04006ED0E4
:1013D0002078DFF84C93C007A9F104054AD009F141
:1013E00004000168C1F38101012908D00068C0F33D
:1013F000810002280AD1D9F80000400206D52868E9
:10140000800337D560680028E1D033E06068B0F52C
:10141000803F10D0B0F5A02F286810D020F4803085
:101420002860286820F4802028606068A8B1FFF751
:1014300099FB06460DE0286840F48030F4E740F45C
:1014400080202860F7E700BFFFF78CFB801B642833
:1014500073D828688003F7D50CE0FFF783FB0646B6
:1014600005E000BFFFF77EFB801B6428F0D82868EA
:101470008003F7D42078DFF8AC8280074FF0000AB1
:101480003ED5A748001D016811F00C0F08D0006878
:10149000C0F3810002280BD1D9F80000400207D424
:1014A0002868800716D5E068012800D112E033E1F2
:1014B000E068B8B10120C8F80000FFF753FB06460A
:1014C00005E000BFFFF74EFB801B0228C0D828684C
:1014D0008007F7D52868216920F0F80040EAC100AC
:1014E00028600DE0C8F800A0FFF73CFB064604E0CA
:1014F000FFF738FB801B02281FD828688007F7D425
:101500002078000722D5864F87486169703771B10E
:1015100001210160FFF726FB064604E0FFF722FBEE
:10152000801B022809D838688007F7D50EE0C0F87C
:1015300000A0FFF717FB064605E082E0FFF712FB6D
:10154000801B02287DD838688007F7D420784007B0
:1015500068D5DFF8CCB100270BF13C0BDBF80000BD
:10156000C0000BD4DBF8001041F08051CBF8001024
:10157000DBF80000012700F0805000906B4E3068CF
:10158000C00510D4306840F480703060FFF7EAFA8C
:10159000009005E0FFF7E6FA0099401A022850D8BB
:1015A0003068C005F6D55E4EA0686C3601280FD0B5
:1015B0000528306810D020F001003060306820F03D
:1015C00004003060A068B8B1FFF7CCFA00900FE0DB
:1015D000306840F00100F4E740F004003060F7E7C5
:1015E000FFF7C0FA0099411A41F28830814266D86B
:1015F00030688007F4D50EE0FFF7B4FA009007E0FA
:10160000FFF7B0FA0099411A41F28830814256D86A
:1016100030688007F4D42FB1DBF8001021F080513E
:10162000CBF80010A069C8B33D49091D0968C1F392
:10163000810102294AD00228504607D0C8F860002C
:1016400000E03CE0FFF78EFA04463BE04746C8F86E
:101650006000FFF787FA064605E000BFFFF782FA51
:10166000801B02282BD828688001F7D4D4E9070111
:101670000843A16A2E4A490802EB0141626A41EA25
:101680008211084394F82C1040EA0161C9F8001057
:1016900001203866FFF766FA044606E03EE000BF28
:1016A000FFF760FA001B022809D828688001F7D5E7
:1016B00034E000BFFFF756FA001B022802D90320CE
:1016C000BDE8F88F28688001F4D427E00128F7D01E
:1016D000D9F80000E26900F4800191421CD1226A2D
:1016E00000F03F01914217D147F6C071626A014094
:1016F000B1EB821F10D1A26A4FF0FF3300F44031EA
:1017000003EB5202B1EB024F06D194F82C1000F01B
:101710007060B0EB016F01D00120D1E70020CFE76E
:101720000438024000004742800E474200700040EB
:101730000000FFFF10B5401EB0F1807F01D30120F3
:1017400010BD4FF0E02460610F21601701F06CF8CC
:101750000020A06107202061002010BD70B590F826
:101760003C20012A2CD0012480F83C40022280F841
:101770003D2003685A689D6822F070060A6832436B
:101780005A60104B02689A420ED0B2F1804F0BD0D3
:101790000D4B9A4208D00D4B9A4205D00C4B9A4201
:1017A00002D00C4B9A4204D1496825F080031943BA
:1017B000916080F83D40002180F83C10084670BDE3
:1017C000022070BD000001400004004000080040FD
:1017D000000C00400040014010B5040003D094F814
:1017E0003D0010B107E0012010BD002084F83C004E
:1017F000204600F01FF8022084F83D00211D2068DB
:1018000000F024FE012084F8460084F83E0084F8AD
:101810003F0084F8400084F8410084F8420084F8D6
:10182000430084F8440084F8450084F83D0000201B
:1018300010BD000008B50068B0F1804F08D1054820
:10184000016841F001010160006800F001000090B2
:1018500008BD00004038024090F83D10012901D039
:1018600001207047022180F83D1000680E4988422F
:101870000ED0B0F1804F0BD00C49884208D00C49F3
:10188000884205D00B49884202D00B49884204D1D6
:10189000816801F00701062903D0016841F00101C8
:1018A000016000207047000000000140000400407B
:1018B00000080040000C00400040014070B50446A4
:1018C00090F83C00012817D0012584F83C500220F4
:1018D00084F83D002068826822F0770222F47F427B
:1018E00082600868502830D00DDC20284DD005DCFF
:1018F00098B310283BD148E0022070BD302844D076
:10190000402834D139E0602828D0702806D0B0F5BE
:10191000805F2CD0B0F5005F29D10AE0CB68D1E917
:101920000121206800F0DEFD2068816841F0770128
:1019300009E0CB68D1E90121206800F0D3FD2068DF
:10194000816841F48041816011E0CA68496820687B
:1019500000F0DAFD5021206807E016E0CA68496807
:10196000206800F0E2FD6021206800F0C5FD84F8E9
:101970003D50002084F83C0070BDCA68496820686A
:1019800000F0C2FD40212068EFE7226801461046C2
:10199000EBE7704770470000F8B50268044610682E
:1019A000D168536910F00F0F4FF0000553D003F0CA
:1019B000010601F4907737435FD0C20705D0CA050E
:1019C00003D5226C42F001022264420705D5DA07F2
:1019D00003D0226C42F002022264820705D5DA07A6
:1019E00003D0226C42F004022264020707D501F002
:1019F0002002324303D0226C42F008022264226C9F
:101A0000002A34D0800604D5880602D5204600F08E
:101A1000BEFD20684069216CC0F38010090700D426
:101A200030B3204600F09BFD2068416949061BD574
:101A3000416921F040014161A06BA8B1594901659C
:101A4000A06BFEF788FF002811D0A06B016D01B0DC
:101A5000BDE8F040084783060FD58B060DD520461C
:101A6000BDE8F84000F093BD2046FFF793FFF8BDB6
:101A70002046FFF78FFF2564F8BD266B2023012E3B
:101A800053D1C60651D5CE064FD510685068009088
:101A9000506940062BD5A16B086840680004000C13
:101AA000EAD0A68D8642E7D9E085C869B0F5807F87
:101AB00018D0D06820F48070D0602068416921F08F
:101AC000010141612068416921F04001416184F8D0
:101AD0003E3025632068C16821F01001C160A06B11
:101AE000FEF7F2FEA08DE18D401A81B219E0A08DC3
:101AF000E18D401A81B2E08D0028BDD00029BBD015
:101B0000D06820F49070D0602068426922F0010211
:101B1000426184F83E3025632068C26822F01002DA
:101B2000C2602046FFF735FFF8BD05062BD50D0630
:101B300029D594F83D002128F6D1A068B0F5805F42
:101B400001D12069B0B1206A411C2162216800786E
:101B50004860E08C401E0004000CE084E4D1206862
:101B6000C16821F08001C1602068C16841F0400176
:101B7000C160F8BD206A0088C0F308005060206A88
:101B8000801C2062E5E74006F3D54806F1D5D16810
:101B9000204621F04001D16084F83D3000F01AF970
:101BA000F8BD00004F25000870B5040004D094F87B
:101BB0003D00002510B106E0012070BD84F83C50C6
:101BC000204600F023F8242084F83D002068C168F6
:101BD00021F40051C160204600F030FD2068016909
:101BE00021F4904101612068416921F02A0141619D
:101BF0002068C16841F40051C1602564202084F848
:101C00003D0084F83E00002070BD000010B586B095
:101C1000044614216846FEF715FB174920688842E0
:101C200028D116480021026842F4003202600068A0
:101C300000F40030059011481038026842F00102AB
:101C40000260006800F0010005900C200090022066
:101C5000CDE901010320039007200490694608485C
:101C6000FEF78CFE002211462620FFF791FA26206F
:101C7000FFF780FA06B010BD004400404038024033
:101C80000000024090F83E30202B0ED159B152B1E5
:101C900090F83C30012B08D0012380F83C30002321
:101CA000036300F051BD012070470220704700001F
:101CB00010B50B4900680968884210D10848803087
:101CC0000078412803D04D2801D100F0E5FA0449FD
:101CD0000C22BDE8104080310148FFF7D3BF10BD92
:101CE0005C0100202DE9F843044690F83D001F46B2
:101CF00016460D4620284CD1C5B1BEB194F83C0023
:101D0000012846D0012084F83C004FF00008C4F8B8
:101D10004080212084F83D00FEF724FFA684814600
:101D2000E684A068B0F5805F03D004E00120BDE840
:101D3000F883206928B12E465FF0000584F83C80C6
:101D40000EE00026FAE78021204600F018FDA0B939
:101D5000AEB116F8010B21684860E08C401EE084AB
:101D6000E08C4B464FF0000200970028EBD14FF07B
:101D70004001204600F003FD30B10320D7E735F8DD
:101D8000020BC0F30800E6E7202084F83D000020A5
:101D9000CDE70220CBE790F83D30202B18D1A9B138
:101DA000A2B190F83C30012B12D001628284C2842F
:101DB00000210164212280F83D2080F83C10006859
:101DC000C16841F08001C160002070470120704768
:101DD000022070477047FEE701684A69D243520506
:101DE0000FD46FF480624A61002140F8301F202236
:101DF00042738173026942F004020261017301209F
:101E000070470020704700002DE9F84F0446C06A73
:101E10001E4693460D4621680A6842F480620A60B5
:101E2000082807D0012805D010F5803F02D0206B8C
:101E3000112804D12068016841F4807101604FF0DD
:101E400001195B46002249462046009600F0C6F87C
:101E50004FF4007840B120680068C00501D5C4F88F
:101E600040800320BDE8F88F2069DFF884A0B0F53A
:101E7000804F0FD00620216800EAD51747F0F00008
:101E8000086133465A460AF10601204600F0DAF8A6
:101E900058BB03E0E8B240F001001CE02168E8B262
:101EA000086133465A465146204600F0CBF8E0B967
:101EB0002068416981690091016841F48071016085
:101EC0005B46002249462046009600F087F800282D
:101ED000C1D147F0F1002168086133465A465146A6
:101EE000204600F0AFF80028BCD00120BAE700007F
:101EF00002000100F8B50446C06A1E460D461746AA
:101F0000082807D0012805D010F5803F02D0206BAB
:101F1000122804D12068016841F4807101601346E1
:101F200000224FF001112046009600F057F840B112
:101F300020680068C00502D54FF4007020640320BB
:101F4000F8BD2069B0F5804F0ED00620216800EA68
:101F5000D51040F0F000086133463A460B49204660
:101F600000F070F878B902E005F0FE0000E0E8B299
:101F700021680861054933463A46891F204600F02A
:101F800061F80028DCD00120F8BD00000800010045
:101F900070B516460D4604460DE02046FFF71CFFBF
:101FA00008B1012070BD681C05D0FEF7DBFD801B69
:101FB000A84207D835B120684069C0434007ECD437
:101FC000002070BD002044F8300F20216173A07301
:101FD000216941F0200121612073E2E72DE9F047FA
:101FE0001E4690460D460446C1F30747DDF8209093
:101FF00008E0701C06D0FEF7B5FDA0EB0900B0426A
:102000000FD876B12068012F18D0806925EA00002A
:102010000004000C14D000214145EAD00020BDE8A6
:10202000F087002044F8300F20216173A0732169EC
:1020300041F02001216120730120F0E74069E5E7CC
:102040000121E9E72DE9F0479A4691460E460446FC
:1020500000254FF02008C1F3074725E020684069BC
:10206000C043400514D42068016841F40071016048
:1020700021686FF480604861256384F83D8084F8AE
:102080003E50206C40F00400206484F83C501FE077
:10209000B9F1FF3F08D0FEF765FDA0EB0A01494505
:1020A0000CD8B9F1000F09D02068012F13D0806936
:1020B00026EA00000004000C0BD0CFE744F8305FA4
:1020C00084F80D80A573206940F0200020612573FD
:1020D0000120BDE8F0874069EAE72DE9F0410025DD
:1020E00090460E460446202717E04069C043C006CC
:1020F0000CD454F8301B6FF01000486144F81059AC
:102100006777A577206A2062257717E0FEF72AFD1A
:10211000A0EB0800B04208D83EB120684169C9432D
:102120004906E2D40020BDE8F08144F8305F6773CF
:10213000A573206940F02000206125730120F2E79B
:1021400070B516460D4604460DE02046FFF744FEE6
:1021500008B1012070BD681C05D0FEF703FD801B8F
:10216000A84207D835B120684069C0430006ECD4C6
:10217000002070BD002044F8300F20216173A0734F
:10218000216941F0200121612073E2E72DE9F0414E
:1021900086B014216846FEF755F8234800240168EC
:1021A00041F080010160016801F080010591016842
:1021B00041F001010160016801F001010591016830
:1021C00041F002010160016801F00201059101681E
:1021D00041F0040101600068144F00F004004FF466
:1021E00070750590002229463846FEF7B5FCDFF8E9
:1021F00040804FF44076002231464046FEF7ACFC6A
:1022000000950125CDE90154694638460394FEF74F
:10221000B5FB0096CDE90154694640460394FEF7AC
:10222000ADFB06B0BDE8F081303802400008024046
:102230000000024010B586B00024164800940194B6
:102240000294039404944FF080410594016031217D
:10225000C0E901144FF6FE71C0E903148461FFF771
:10226000BBFA08B172B6FEE74FF4805000906946A1
:102270000848FFF723FB08B172B6FEE7049404A9EF
:1022800004480594FFF76AFA002801D072B6FEE709
:1022900006B010BD14010020234810B54178234C2E
:1022A00052293FD0532921D1807843281FD0542868
:1022B0001CD11D4800F028FF1B48A1883C3801F0C4
:1022C000DEF81948E188283801F0D9F81648218944
:1022D000143801F0D4F800F05BFF1348212204F118
:1022E00036018038FFF757FD0120207010BD0E48E1
:1022F00000F00AFF0C48A1883C3801F0A9F80A4810
:10230000E188283801F0A4F807482189143801F041
:102310009FF80649044822221431BDE81040803855
:10232000FFF739BD0220E0E7DC01002004000020B7
:10233000FEE7FEE77047704730B5DDE90345016011
:102340008280C38005EB850104724901C16001618F
:10235000002030BDFEF7B4BE30B593B030216846E2
:10236000FDF770FF14210CA8FDF76CFF1B4800243B
:10237000016841F080510160006800F080501190C8
:102380001748016841F4404101600068022500F4EB
:102390004040119001200090000401908001CDE99F
:1023A000065008AA0420322182E823000B906846D8
:1023B000FFF70AF808B172B6FEE70F200C90CDE9DE
:1023C0000D540F9401210CA81094FEF713FF002860
:1023D00001D072B6FEE713B030BD000040380240B5
:1023E000007000400248016841F4700101607047CC
:1023F00088ED00E01CB500218DF804100A21009141
:1024000001790068012301AAFEF766FD002800D0CB
:1024100001201CBD10B501600271FFF7EBFF002821
:1024200000D0012010BD1CB507290DD801228A401B
:102430008DF804200A21009101790068012301AA86
:10244000FEF74AFD002800D001201CBDF0B502684F
:102450001D4B1E4C9F031E4D1E4E984207D0B84286
:1024600005D0A04203D0A84201D0B04204D122F04E
:10247000700C4A6842EA0C02984210D0B8420ED062
:10248000A0420CD0A8420AD0B04208D0124CA042C0
:1024900005D0124CA04202D0114CA04203D122F42C
:1024A0004074CA6822434C6922F0800222430260D1
:1024B0008A68C2620A688262984201D1096901632E
:1024C00001214161F0BD0000000001400004004016
:1024D00000080040000C0040004001400044014062
:1024E0000048014010B5846842EA032224F47F4486
:1024F0000A432243826010BD826822F070020A43C0
:1025000042F007018160704710B5036A046A24F045
:1025100001040462846924F0F00444EA021423F004
:102520000A020A438461026210BD10B5036A23F0F7
:10253000100303628369046A23F4704343EA02329E
:1025400024F0A00343EA01118261016210BD10B5BD
:10255000806B0021C185C184FFF71CFA10BD0168A2
:10256000CA6822F49072CA6001684A6922F00102C6
:102570004A61016B012904D10168CA6822F0100286
:10258000CA60202180F83E1000210163704710B519
:10259000044690F83E00222801D0022010BDA16818
:1025A0004FF48052914201D1206920B1A06A91423A
:1025B0001BD049B10AE02168A06A4968C1F308014B
:1025C0000180A06A801C08E0216971B12168496816
:1025D00001F07F010170A06A401CA062E08D401EE6
:1025E0000004000CE08503D01CE021684968F1E795
:1025F0002068C16821F02001C1602068C16821F411
:102600008071C1602068416921F001014161202091
:1026100084F83E00206B012806D02046FFF748FBD7
:1026200000202063002010BD2068C16821F0100147
:10263000C160A18D2046FFF7ACF9F1E770B5044603
:1026400000680169E26821F4405111430161216988
:10265000A068E26908436169114308432168CA68B8
:1026600049F20C639A430243CA6020684169A26937
:1026700021F440711143416131492068884202D000
:102680003049884202D1FEF75FFE01E0FEF74CFEC2
:10269000E2690023192164253226B2F5004F6268F1
:1026A00028D0A0FB0101930F9200FDF793FD014696
:1026B000B0FBF5F06FF01802504301EB800006EB21
:1026C0000010B0FBF5F000F0F002B1FBF5F002EB0A
:1026D0000012B1FBF5F06FF01803584301EB8000D6
:1026E00006EB0010B0FBF5F000F00F00216810447D
:1026F000886070BDA0FB010192185B41FDF76AFD87
:102700000146B0FBF5F00201B1FBF5F06FF01803E4
:10271000584301EB800006EBC000B0FBF5F000F081
:10272000F80002EB4002B1FBF5F0584301EB8000EA
:1027300006EBC000B0FBF5F000F00700D6E70000A4
:10274000001001400014014081628285C285002191
:102750000164222280F83E2080F83C100168CA689B
:1027600042F48072CA6001684A6942F001024A611B
:102770000068C16841F02001C160002070472DE968
:10278000F041984617460E460446069D1DE0681C1B
:102790001BD02DB1FEF7E6F9A0EB0800A84214D932
:1027A0002068C16821F4D071C1602068416921F0BE
:1027B00001014161202084F83D0084F83E000020A2
:1027C00084F83C000320BDE8F0812068006836EA08
:1027D000000004D00020B842D9D00020F3E7012047
:1027E000F9E700000148FFF7D7B800005C010020BE
:1027F000FEE700000FB47CB50C0009AD01D0611EEE
:1028000000E00021CDE90001064B6A462946089800
:1028100000F0ECF8002C02D0009A002111707CBC72
:102820005DF814FBF33000080907090E002804DBEB
:1028300000F1E02080F80014704700F00F0000F174
:10284000E02080F8141D704702E008C8121F08C17C
:10285000002AFAD170477047002001E001C1121F21
:10286000002AFBD1704700002DE9FF5F82B00021F4
:10287000DDE90430020DDDF840B0034318D044F622
:102880001050A2F2FF3242431514119801281FD0B4
:10289000A5EB0B00401C5FEA000A4FF000064E4F0C
:1028A000DFF83891B046504615D5CAF1000413E060
:1028B000119801244AA3012801D16FEA0B01029863
:1028C000119AC0E90031C0E9024206B0BDE8F09FAC
:1028D000CBF10000DFE704460021404A491842EBF3
:1028E0000450CDE9001012E0E00707D032463B4625
:1028F00040464946FDF7A0FD8046894632463B46A4
:1029000010461946FDF798FD06460F466410002C48
:10291000EAD1DDE90401DDE90023BAF1000F06DAAE
:10292000FDF78AFD42464B46FDF786FD05E0FDF7C3
:10293000F5FD42464B46FDF7F1FD04460E460022EA
:10294000284BFDF773FE03D84FF0FF30014607E038
:102950000022254B20463146FDF7C7FCFDF74DFE12
:10296000102409E0002C0ADB0A220023FDF732FCC8
:10297000039B30321A55641E50EA0102F2D1641CE6
:10298000039AC4F111031444119A012A03D00122BD
:1029900008430DD10AE0084304D000204FF0110B8A
:1029A000119072E7A3EB0B056D1E0DE05B4504DD96
:1029B0004FF0000205F1010504E003DA4FF00002D8
:1029C000A5F10105002AECD002981199C0E9023165
:1029D000C0E9004579E70000000014400000F03F26
:1029E000300000000000F0430000E03F2DE9FF4F01
:1029F00095B09A46884606460025EEE1252877D10F
:102A000000242746F94A0121039400E0044316F804
:102A1000013F203B01FA03F01042F7D130782A2819
:102A200011D06FF02F033078A0F13002092A16D8A8
:102A3000039A44F0020402EB820203EB42021044C8
:102A4000761C0390EFE758F8042B0392002A03DA70
:102A5000504244F40054039044F00204761C307851
:102A60002E2816D116F8010F44F004042A280DD0A0
:102A70006FF02F023078A0F13003092B09D807EB53
:102A8000870302EB4303C718761CF3E758F8047B6F
:102A9000761C30786C280FD006DC4C2817D06828BC
:102AA0000DD06A2814D104E0742810D07A280FD1F0
:102AB0000DE044F400140AE044F4801401E044F40E
:102AC00040147278824202D104F58014761C761C80
:102AD000307866280BD013DC582877D009DC002822
:102AE00075D04528F6D04628F4D047281AD193E16E
:102AF00018E0632835D0642879D0652812D18BE19D
:102B0000702873D008DC6728F1D069286FD06E2850
:102B10000DD06F2806D1ACE073282CD0752874D066
:102B2000782853D05246179990476D1C54E1C4F34E
:102B30000250022809D003280DD0D8F8001004282C
:102B40000DD00D6008F1040846E1D8F80010EA172E
:102B5000C1E90052F6E7D8F800100D80F2E70D70D9
:102B6000F0E718F8041B8DF8001000208DF8010024
:102B7000EB46012003E058F804BB4FF0FF3061073B
:102B80004FF0000102D40DE009F101018946B9427C
:102B90000FDA8145F8DB1BF809100029F4D108E0B1
:102BA00009F1010189468142FADB1BF8091000296D
:102BB000F6D103985346A0EB090721463846179AE9
:102BC00000F080FA284400EB090507E044E008E142
:102BD0000DE01BF8010B524617999047B9F1010916
:102BE000F7D2534621463846179AF2E039E00A21D7
:102BF000C4F302524FF0000B0091022A06D058F89D
:102C0000040BC117032A09D00AE023E008F10700EA
:102C100020F00702F2E80201904605E000B2C11779
:102C2000042A01D140B2C117002906DA0A46002160
:102C3000404261EB02012D2202E0220504D52B2245
:102C40008DF80420012203E0E20701D02022F7E7FB
:102C5000914657E00A2100E010214FF0000B00914F
:102C60000BE010214FF0000B44F004040827009102
:102C700003E008204FF0000B0090C4F30252022A38
:102C800005D058F8040B0021032A08D008E008F109
:102C9000070020F00702F2E80201904603E080B24C
:102CA000042A00D1C0B24FF0000922072AD5327899
:102CB000702A07D0DDF800C08CF0100C5CEA0B0C19
:102CC00005D00EE040228DF80420012208E050EAF1
:102CD000010306D030238DF804308DF80520022240
:102CE0009146009B83F0080353EA0B030AD150EA94
:102CF000010201D1620705D530228DF804204FF082
:102D000001097F1E3278582A04D039A20C920CAAED
:102D100002920BE03BA2F9E75B46009AFDF75AFAF4
:102D20000C9B9B5C029A521E0292137050EA0102A5
:102D3000F2D1029804A9081A00F1200B600702D50D
:102D400024F4803400E001275F4502DDA7EB0B008F
:102D500000E0002000EB0B01009003984944401A6A
:102D60000390E00306D453462146179A039800F0D7
:102D7000A9F90544002706E001A85246C05D17994D
:102D800090476D1C7F1C4F45F6DBE0030CD5534686
:102D90002146179A039800F095F9054404E0302085
:102DA0005246179990476D1C0099481E00900029C3
:102DB000F5DC08E00298029952460078491C02911D
:102DC000179990476D1CBBF10001ABF1010BF1DCD1
:102DD0005BE100F065F90544761C307800287FF44B
:102DE0000DAE19B02846BDE8F08F0000092801009B
:102DF0003031323334353637383961626364656671
:102E00000000000030313233343536373839414232
:102E10004344454600000000600700D4062708F13F
:102E2000070020F00700F0E80223804603F0004C82
:102E30005FEA0C0001D097A009E0200501D596A01B
:102E400005E0E00701D095A001E0AFF24C0013903F
:102E5000307823F0004365280CD006DC452809D0E3
:102E600046281DD047287FD13BE0662818D0672828
:102E70007AD136E00021112F01DB112000E0781C0F
:102E8000CDE9000104A90CA8FFF7EEFCDDE90D0176
:102E90000C9A4FF0000B07F10109109200914EE0DF
:102EA0004FF000400097CDE9011004A90CA8FFF7EE
:102EB000DBFCDDE90D020C9B0F994FF0000B9146F6
:102EC0001093009211B9791C00EB0109B7EB0900CE
:102ED00003D4C0F1FF3B07F10109A9EB0700019002
:102EE00042E0012F00DA01270021112F01DD11201E
:102EF00000E03846CDE9000104A90CA8FFF7B4FCB6
:102F0000DDE90D010C9A00914FF0000BB9461092CB
:102F100021070FD4009A4A4503DA914601E0A9F14E
:102F20000109B9F1010F05DD109AA9F10101515C08
:102F30003029F4D0B84202DA10F1040F03DA01218B
:102F4000CDE9011010E0002803DC8344A9EB000167
:102F500002E0411C494500DD8946A0EB0B00401C06
:102F600001904FF000400290200705D40198484599
:102F700002DB4FF0FF30019000208DF84B000298EB
:102F80000DF14B07B0F1004F25D002200C902B2003
:102F90000D90029800280CDA404202902D200D90EE
:102FA00007E00A210298FDF76BF93031029007F82B
:102FB000011D0C99481E0C900029F2DC0298002893
:102FC000EFD1791E0D980870307800F0200040F0A5
:102FD000450007F8020D11A8C01BC01D02901398F0
:102FE000007800B1012000EB0901019801EBE071CC
:102FF000029801440398401A401E0390E00306D44F
:1030000053462146179A039800F05CF8054413983C
:10301000007818B15246179990476D1CE00323D5EC
:1030200053462146179A039800F04CF805441BE0DC
:10303000BBF1000F07DB0098584504DD1098179985
:1030400010F80B0001E01799302052469047019884
:103050000BF1010B401E05F10105019004D12E205A
:103060005246179990476D1CB9F10001A9F1010969
:10307000DEDC05E017F8010B5246179990476D1CEE
:103080000299481E02900029F4DC53462146179A03
:1030900003989EE62D0000002B0000002000000099
:1030A0002DE9F041044600251E461746880404D445
:1030B00005E039462020B0476D1C641EF9D528462E
:1030C000BDE8F0812DE9F041044600251E469046FA
:1030D000C80301D5302700E02027880404D505E087
:1030E00041463846B0476D1C641EF9D52846BDE8F8
:1030F000F0814A68002A06D00A68531C0B601070E1
:103100004868401E4860704730B5C1784279303910
:1031100001EBC10303EB011102EB8102017901EB29
:103120008103134901EB43031344124A93808379CB
:10313000047A303B03EBC30505EB031304EB830375
:10314000C47904EB840401EB44042344D380437A20
:10315000C47A303B807A03EBC30505EB031300EB25
:10316000800004EB830301EB40001844108130BD64
:10317000F0FDFFFF04000020044900220B685A62A2
:1031800009684A6A92B28242FBD370471401002058
:10319000F0B51B4D4EF2600305F1140605F128074A
:1031A00030692A69396944F2C044984201D9184605
:1031B00002E0A04200D22046124B48F280449942DD
:1031C00001D9194602E0A14200D2214644F260032F
:1031D0000344994200D219464AF2E0139A4203D8B6
:1031E0004FF4A0639A4200D21A46A0F58043603B98
:1031F0009A4200D91A462A6130613961F0BD000057
:10320000A0010020C02001001CB5FDF761FFFFF701
:10321000A3F8FEF7BBFF694969486A4D002780E8BB
:10322000A2000C14C0E9037447618761C76107629B
:10323000FDF79EFC08B172B6FEE761486249F030C6
:1032400001604FF4E131C0E901170C21C760C0E90A
:1032500004718761C761FEF7A7FC08B172B6FEE78B
:10326000FEF7E8FF56485949543080E8A200C0E90B
:10327000037447618761C7610762FDF779FC08B194
:1032800072B6FEE74E48A830FEF7E6FA4FF0200B84
:103290004FF48075CDE900B76E005C462B46324690
:1032A0004B494C48FFF748F82B464B4D4948CDE970
:1032B0000047324629461430FFF73EF84548CDE92D
:1032C00000474023802229462830FFF735F841493E
:1032D0000C223C31A1F18000FEF7D4FCDFF8FC8029
:1032E000374908F10C0098F80120FFF793F8394DA1
:1032F00000244835394821460C30FFF794F805EB97
:10330000C40646222E493046FDF729FA30460121EF
:10331000FDF734FA30461021FDF78EFA641CE4B252
:10332000042CE7D3DFF8ACA00AF1780A98F8001073
:10333000012925D00229F9D1DFF89890002409F15C
:103340006809264821460C30FFF76DF809EB840127
:103350000E4605EBC400FDF725FA3068FCF77DFF4B
:10336000CDE900011B481EA20A217830FFF742FA7E
:10337000464688F80200032C0ED28AF809B00EE007
:10338000144800F02FF81348143000F02BF81148BF
:10339000283000F027F8C9E70A218AF809100D49FA
:1033A0000A2378311A46A1F1BC00FEF79BFC641C8D
:1033B000E4B23770042CC4D3B8E7000000540040D6
:1033C0006C000020A086010000440040005800402E
:1033D00000000240A001002000080240040000207C
:1033E0002566000070B504464FF49675D4E90301D4
:1033F00081422BD0204614D900F031F8E188012217
:103400002068FDF7A9FB3220FFF7B6FEE188002215
:103410002068FDF7A1FB2846FFF7AEFEE068401CE0
:1034200013E000F024F8E18801222068FDF794FB06
:103430003220FFF7A1FEE18800222068FDF78CFB17
:103440002846FFF799FEE068401EE060002070BD4E
:1034500001EB81014901C16001610020704710B595
:10346000818800680122FDF777FB002010BD10B5B0
:10347000818800680022FDF76FFB002010BD01EB82
:103480008101490101610020704700000000000037
:103490000000010203040607080900000000010201
:1034A00003040000C4340008000000206C00000089
:1034B00048280008303500086C000020BC050000DA
:1034C000582800080000000000E000000000000094
:1034D0000000000000000000000000000A536574B6
:1034E0002043757272656E7420506F736974696FD2
:1034F0006E20636F6D706C65746564210A000A53F9
:1035000065742054617267657420506F73697469C3
:103510006F6E20636F6D706C65746564210A0000C6
:103520000100000010000000000000000024F40072
:040000050800019955
:00000001FF
